:020000040000FA
:06000000FBEF05F0120009
:020006001200E6
:080008007CEF04F012000F016F
:10001000010E136F12CF8CFF1200956A8C6A1200CA
:100020009368C0881F0EC16EC098FB0E926E8084CC
:100030001200280ED56EF2941200C00ECD6E9E9066
:100040001200B00E796EA1921200D70E946E400E7F
:10005000C76E220EC66E12009468C70EC86E800E60
:10006000C76E280EC66EC56A1200C69A1200D9CF96
:10007000E6FFE1CFD9FFFD0EDBCF02F0FE0EDBCFB6
:1000800003F0080E0F0B05E0D89003320232E806A9
:10009000FBE1021E031E0250CF6EFD0EDBCF02F00D
:1000A000FE0EDBCF03F00001036A021E031E0250A6
:1000B000CE6ECD809EA0FED7CD909E90E552E7CF2C
:1000C000D9FF1200D9CFE6FFE1CFD9FFFD0EDBCF7C
:1000D00002F0FE0EDBCF03F0080E0F0B05E0D89008
:1000E00003320232E806FBE1021E031E02507B6E61
:1000F000FD0EDBCF02F0FE0EDBCF03F00001036A42
:10010000021E031E02507A6E7980A1A2FED779905A
:10011000A192E552E7CFD9FF1200C40EE66E3B0E66
:10012000E66EA5DFE552E5521200860EE66E010E80
:10013000E66E9DDFE552E5521200AE0EE66E010E50
:10014000E66E95DFE552E55212006A0EE66E180E75
:10015000E66EB8DFE552E5521200D9CFE6FFE1CFF7
:10016000D9FFE652140EDF6EDF0602E0EEDFFCD7A9
:10017000E552E552E7CFD9FF1200D9CFE6FFE1CF34
:10018000D9FF020EE126C80EDE6EDD6AD9CFE9FF87
:10019000DACFEAFFEE06000EED5AEECF02F0EDCF19
:1001A00003F00250031002E0D0DFF0D7020EE15C52
:1001B00002E2E16AE552E16EE552E7CFD9FF1200B3
:1001C000D9CFE6FFE1CFD9FFFE0EDB50C96E9EA668
:1001D000FED79E96E552E7CFD9FF1200D9CFE6FFB2
:1001E000E1CFD9FF8094400EE66EEADFE552130EB0
:1001F000E66EE6DFE552FE0EDBCFE6FFE1DFE5521D
:10020000808493DF8094400EE66EDADFE552120EB2
:10021000E66ED6DFE552400EE66ED2DFE552808410
:1002200084DF8094400EE66ECBDFE552120EE66E60
:10023000C7DFE552E66AC4DFE552808476DFE55227
:10024000E7CFD9FF1200D9CFE6FFE1CFD9FF8094E5
:10025000400EE66EB5DFE552130EE66EB1DFE552F5
:10026000FE0EDBCFE6FFACDFE55280845EDF8094DC
:10027000400EE66EA5DFE552120EE66EA1DFE552F6
:10028000C00EE66E9DDFE55280844FDF8094400E05
:10029000E66E96DFE552120EE66E92DFE552800EB4
:1002A000E66E8EDFE552808448DFE552E7CFD9FF66
:1002B0001200D9CFE6FFE1CFD9FFE652DF6ADF5067
:1002C000E76EFD0EDBCFF6FFFE0EDBCFF7FFE7504C
:1002D000F626000EF7220800F55013E0DF50E76E17
:1002E000FD0EDBCFF6FFFE0EDBCFF7FFE750F62665
:1002F000000EF7220800F550E66EA5DFE552DF2A72
:10030000DED7E552E552E7CFD9FF12008094400EC8
:10031000E66E56DFE552E66A53DFE552E66A50DFE5
:10032000E552808402DF8094400EE66E49DFE5529C
:10033000010EE66E45DFE552E66A42DFE552808453
:10034000F4DE8094400EE66E3BDFE552120EE66E60
:1003500037DFE552E66A34DFE5528084E6DE8094DA
:10036000400EE66E2DDFE552130EE66E29DFE552F4
:10037000E66A26DFE552808495EF00F0010EE66E16
:100380002DDFE5528DEF00F0F9DF380EE66E26DF47
:10039000E552060EE66E22DFE5520F0EE66E1EDF18
:1003A000E5521200D80ECF6EEF0ECE6ECD809E506D
:1003B000010B026E9E50080B01E0010E021001E1DC
:1003C000F6D79EA003D00F01010E136F9E969E904C
:1003D000CD901200C580D2EF01F0C582D2EF01F0BE
:1003E000C584D2EF01F0D9CFE6FFE1CFD9FFFE0EF1
:1003F000DB50C96ED7DFC5AC02D009DE00D0E552B4
:10040000E7CFD9FF1200C586CDDFC9CF11FF12009B
:10041000C59AC588D2EF01F0C58AC588D2EF01F030
:10042000D9CFE6FFE1CFD9FFD5DF0F01010E126F63
:10043000DE0EE66ED8DFE5520F01020E126FFD0EE2
:10044000DBCFE6FFD0DFE5520F01030E126FFE0E89
:10045000DBCFE6FFC8DFE552C3DF67DEE552E7CF5B
:10046000D9FF1200D9CFE6FFE1CFD9FFB3DF0F01EB
:10047000040E126FDE0EE66EB6DFE5520F01050EBA
:10048000126FFE0EDBCFE6FFAEDFE552A6DF0F01F7
:10049000060E126FDF0EE66EA6DFE552B4DFBCDF9C
:1004A0009FDF43DE0F01115100D0E552E7CFD9FFA6
:1004B0001200030EE66ED6DFE5520F010D6F070E38
:1004C000E66E400EE66EACDFE552E552030EE66ED8
:1004D000080E0F010D11E66EA3DFE552E552120082
:1004E000200E0F010D15200801E128D0060EE66E42
:1004F000100EE66E95DFE552E552050EE66E030E30
:10050000E66E8EDFE552E552040EE66E010EE66EF3
:1005100087DFE552E552020EE66E090EE66E80DFD9
:10052000E552E552010EE66EE66A7ADFE552E552E3
:10053000E66AB00EE66E74DFE552E55212007F0EF9
:100540000F010A15E8380F0B300FE66E7CDEE5521E
:100550000F0E0F010A15300FE66E75DEE552120020
:100560000F010B390F0B300FE66E6DDEE5520F0EEB
:100570000F010B15300FE66E66DEE5521200BF0E5E
:100580000F010C15E8380F0B300FE66E5CDEE552FC
:100590000F0E0F010C15300FE66E55DEE5521200FE
:1005A0003F0E0F010E15E8380F0B300FE66E4BDED5
:1005B000E5520F0E0F010E15300FE66E44DEE552C8
:1005C00012001F0E0F010F15E8380F0B300FE66EEB
:1005D0003ADEE5520F0E0F010F15300FE66E33DED7
:1005E000E55212000F0110390F0B300FE66E2BDEB3
:1005F000E5520F0E0F011015300FE66E24DEE552A6
:100600001200D9CFE6FFE1CFD9FFE652DF6A815071
:10061000010B04E08050200B01E0F9D781B003D03A
:10062000010EDF6E02D0020EDF6E97DD96DD815087
:10063000010B03E08050200B01E1F9D7DF5000D01F
:10064000E552E552E7CFD9FF1200D9CFE6FFE1CF5F
:10065000D9FFE652DF6AFE0EDB50DF5C06E2100EC9
:10066000E66EBCDDE552DF2AF6D7E552E552E7CF6C
:10067000D9FF1200D9CFE6FFE1CFD9FFE652DF6AFA
:100680000D0EE66EABDDE552FE0EDB50DF5C06E2E2
:10069000100EE66EA3DDE552DF2AF6D7DF6AFE0E06
:1006A000DB50DF5C06E2200EE66ECDDDE552DF2A90
:1006B000F6D7DF6AFE0EDB50DF5C06E2100EE66E58
:1006C0008DDDE552DF2AF6D70F0EE66E87DDE552A7
:1006D000E552E552E7CFD9FF1200990E0F01105DE8
:1006E00002E1106B0AD00F0E1015090805E1100E7B
:1006F0001025F00B106F01D0102B74DF020EE66E88
:10070000A4DFE55212000F010F51120A07E01B0A85
:1007100002E00F2B06D0100E0F6F03D0010E0F6FEB
:1007200000D04FDF020EE66E90DFE55212000F019F
:100730000E51290A11E0300A0CE0100A07E0380ACD
:1007400002E00E2B0CD0010E0E6F09D0100E0E6FB2
:1007500006D0200E0E6F03D0300E0E6F00D020DFBB
:10076000020EE66E72DFE55212000F010C51090A0B
:100770000BE0100A06E03A0A02E00C2B08D00C6BE2
:1007800006D0200E0C6F03D0100E0C6F00D0F7DED9
:10079000020EE66E5ADFE5521200590E0F010B5D94
:1007A00002E10B6B0AD00F0E0B15090805E1100EC4
:1007B0000B25F00B0B6F01D00B2BD2DE020EE66E79
:1007C00044DFE55212007F0E0F010A150A6F590E21
:1007D0000A5D02E10A6B0AD00F0E0A15090805E14D
:1007E000100E0A25F00B0A6F01D00A2BA8DE020EAC
:1007F000E66E2BDFE552120038DC2EDC060EE66ECC
:1008000031DEE5520F01106F0F01135103E02DDCB3
:100810001CDC68D0050EE66E25DEE5520F010F6F79
:100820000F01135103E021DC10DC5CD0DF0E0F015F
:100830000F150F6F040EE66E15DEE5520F010E6FF9
:100840000F01135104E011DC25EC00F04BD0020E37
:10085000E66E08DEE5520F010C6F0F01135105E043
:1008600035EC00F025EC00F03DD0010EE66EFADD2F
:10087000E5520F010B6F0F01135105E035EC00F04D
:1008800025EC00F02FD0E66AEDDDE5520F010A6F8E
:100890000F01135105E035EC00F025EC00F022D0FB
:1008A00035EC00F025EC00F0870EE66E97DCE552A3
:1008B00099DE200EE66EC7DCE55283DE200EE66E82
:1008C000C2DCE5526DDEC70EE66E88DCE55257DE0F
:1008D000200EE66EB8DCE55243DE200EE66EB3DC99
:1008E000E5522DDE1200D08EF184800EF26E1200E1
:1008F000F29A1200F28A1200DACFE4FFE2CFDAFFB6
:10090000E9CFE4FFEACFE4FFF6CFE4FFF7CFE4FF5F
:10091000F5CFE4FFF3CFE4FFF4CFE4FFFACFE4FF39
:1009200000EE00F0020EE80403E3EECFE4FFFBD795
:1009300000EE02F0020EE80403E3EECFE4FFFBD783
:10094000E652D768D668F2949E960F01136B8C6AB4
:10095000C59C52DFE55200EE03F0020EE80403E30B
:10096000E5CFEDFFFBD700EE01F0020EE80403E354
:10097000E5CFEDFFFBD7E5CFFAFFE5CFF4FFE5CFFD
:10098000F3FFE5CFF5FFE5CFF7FFE5CFF6FFE5CFC6
:0C099000EAFFE5CFE9FFE5CFDAFF110038
:04099C0001002E0C1C
:0A09A0000000120F00000600000026
:0609AA000DEC00F010EC62
:1009B00000F019EC00F01DEC00F021EC00F09B8C35
:1009C00025EC00F086EC01F0C4EC01F00C0EE66EB4
:1009D000EEEC00F0E55216CFE6FF17CFE6FF59EC3C
:1009E00001F0E552E552C00EE66EEEEC00F0E55285
:1009F00014CFE6FF15CFE6FF59EC01F0E552E552C2
:100A000035EC00F02CEC00F059EC02F070EC02F048
:100A1000D768D668D58E73EC04F07AEC04F001EC5C
:100A200003F0020801E1FBD778EC04F00F0EE66E4C
:100A3000EEEC00F0E552870EE66EEEEC00F0E552CB
:100A400001EC03F0020803E16DEC03F0F9D78A0E24
:100A5000E66EEEEC00F0E55201EC03F0020803E173
:100A600083EC03F0F9D78D0EE66EEEEC00F0E55264
:100A700001EC03F0020803E197EC03F0F9D7C70E8D
:100A8000E66EEEEC00F0E55201EC03F0020803E143
:100A9000B5EC03F0F9D7CA0EE66EEEEC00F0E552C5
:100AA00001EC03F0020803E1CDEC03F0F9D7CD0E21
:100AB000E66EEEEC00F0E55201EC03F0020803E113
:100AC000E3EC03F0F9D70C0EE66EEEEC00F0E55225
:100AD00035EC00F02CEC00F09E960F01136BC59CDA
:100AE0008C6A060EE66E10CFE6FF10EC02F0E552BF
:100AF000E552050EE66E0FCFE6FF10EC02F0E55270
:100B0000E552040EE66E0ECFE6FF10EC02F0E55261
:100B1000E552020EE66E0CCFE6FF10EC02F0E55255
:100B2000E552010EE66E0BCFE6FF10EC02F0E55247
:100B3000E552800E0F010A110A6FE66A0ACFE6FF3E
:100B400010EC02F0E552E552ADEC00F0ADEC00F037
:080B50007AEC04F064D71200F6
:080B58009C0EF66E090EF76E0B
:100B6000000EF86E0F010900F550056F0900F550F1
:100B7000066F03E1056701D03DD00900F550006F15
:100B80000900F550016F0900F550026F09000900D6
:100B9000F550E96E0900F550EA6E090009000900F8
:100BA000F550036F0900F550046F09000900F6CFF6
:100BB00007FFF7CF08FFF8CF09FF00CFF6FF01CFFF
:100BC000F7FF02CFF8FF0F01035302E1045307E0E0
:100BD0000900F550EE6E0307F8E20407F9D707CFD6
:100BE000F6FF08CFF7FF09CFF8FF0F010507000E4A
:060BF000065BBFD71200F6
:0A0BF6001EEE00F02EEE00F0F86A8B
:100C0000019CACEC05F003EC00F0D5EC04F0FBD754
:020C10001200D0
:0E0C1200646174652032300074696D652000E5
:0E0C200000EE00F00F0EEE6AEA62FDD7120041
:020C2E000000C4
:040C30001A0C120C7C
:020000040001F9
:01FFF800A068
:01FFFA000501
:00000001FF
